{
  "contractName": "HealthRecord",
  "abi": [
    {
      "constant": true,
      "inputs": [
        {
          "name": "",
          "type": "uint256"
        }
      ],
      "name": "patients",
      "outputs": [
        {
          "name": "id",
          "type": "uint256"
        },
        {
          "name": "name",
          "type": "string"
        },
        {
          "name": "age",
          "type": "uint256"
        }
      ],
      "payable": false,
      "stateMutability": "view",
      "type": "function"
    },
    {
      "anonymous": false,
      "inputs": [
        {
          "indexed": true,
          "name": "id",
          "type": "uint256"
        },
        {
          "indexed": false,
          "name": "name",
          "type": "string"
        },
        {
          "indexed": false,
          "name": "age",
          "type": "uint256"
        }
      ],
      "name": "PatientAdded",
      "type": "event"
    },
    {
      "anonymous": false,
      "inputs": [
        {
          "indexed": true,
          "name": "id",
          "type": "uint256"
        },
        {
          "indexed": false,
          "name": "name",
          "type": "string"
        },
        {
          "indexed": false,
          "name": "age",
          "type": "uint256"
        }
      ],
      "name": "PatientUpdated",
      "type": "event"
    },
    {
      "anonymous": false,
      "inputs": [
        {
          "indexed": true,
          "name": "id",
          "type": "uint256"
        }
      ],
      "name": "PatientDeleted",
      "type": "event"
    },
    {
      "constant": false,
      "inputs": [
        {
          "name": "id",
          "type": "uint256"
        },
        {
          "name": "name",
          "type": "string"
        },
        {
          "name": "age",
          "type": "uint256"
        }
      ],
      "name": "addPatient",
      "outputs": [
        {
          "name": "",
          "type": "bytes32"
        }
      ],
      "payable": false,
      "stateMutability": "nonpayable",
      "type": "function"
    },
    {
      "constant": false,
      "inputs": [
        {
          "name": "oldId",
          "type": "uint256"
        },
        {
          "name": "newId",
          "type": "uint256"
        },
        {
          "name": "newName",
          "type": "string"
        },
        {
          "name": "newAge",
          "type": "uint256"
        }
      ],
      "name": "updatePatient",
      "outputs": [
        {
          "name": "",
          "type": "bytes32"
        }
      ],
      "payable": false,
      "stateMutability": "nonpayable",
      "type": "function"
    },
    {
      "constant": false,
      "inputs": [
        {
          "name": "id",
          "type": "uint256"
        }
      ],
      "name": "deletePatient",
      "outputs": [],
      "payable": false,
      "stateMutability": "nonpayable",
      "type": "function"
    }
  ],
  "bytecode": "0x608060405234801561001057600080fd5b506109ad806100206000396000f3fe60806040526004361061005c576000357c01000000000000000000000000000000000000000000000000000000009004806367e574821461006157806393119a831461009c57806393b363ab1461015e578063fd80223a14610258575b600080fd5b34801561006d57600080fd5b5061009a6004803603602081101561008457600080fd5b8101908080359060200190929190505050610348565b005b3480156100a857600080fd5b506100d5600480360360208110156100bf57600080fd5b81019080803590602001909291905050506103ad565b6040518084815260200180602001838152602001828103825284818151815260200191508051906020019080838360005b83811015610121578082015181840152602081019050610106565b50505050905090810190601f16801561014e5780820380516001836020036101000a031916815260200191505b5094505050505060405180910390f35b34801561016a57600080fd5b506102426004803603608081101561018157600080fd5b810190808035906020019092919080359060200190929190803590602001906401000000008111156101b257600080fd5b8201836020820111156101c457600080fd5b803590602001918460018302840111640100000000831117156101e657600080fd5b91908080601f016020809104026020016040519081016040528093929190818152602001838380828437600081840152601f19601f8201169050808301925050505050505091929192908035906020019092919050505061046f565b6040518082815260200191505060405180910390f35b34801561026457600080fd5b506103326004803603606081101561027b57600080fd5b8101908080359060200190929190803590602001906401000000008111156102a257600080fd5b8201836020820111156102b457600080fd5b803590602001918460018302840111640100000000831117156102d657600080fd5b91908080601f016020809104026020016040519081016040528093929190818152602001838380828437600081840152601f19601f820116905080830192505050505050509192919290803590602001909291905050506105d8565b6040518082815260200191505060405180910390f35b6000808281526020019081526020016000206000808201600090556001820160006103739190610814565b60028201600090555050807f411e6cb7f8076d33b96af4eacb36fb6242cf37a51744cf7461dd82288219ec6060405160405180910390a250565b6000602052806000526040600020600091509050806000015490806001018054600181600116156101000203166002900480601f01602080910402602001604051908101604052809291908181526020018280546001816001161561010002031660029004801561045f5780601f106104345761010080835404028352916020019161045f565b820191906000526020600020905b81548152906001019060200180831161044257829003601f168201915b5050505050908060020154905083565b60008083511115156104e9576040517f08c379a00000000000000000000000000000000000000000000000000000000081526004018080602001828103825260168152602001807f4e616d65206669656c642069732072657175697265640000000000000000000081525060200191505060405180910390fd5b600080600087815260200190815260200160002090508481600001819055508381600101908051906020019061052092919061085c565b50828160020181905550847f7a23d4ea641a02a4823233bde9bcc5d021d2b484bf7b00c00e380a421daeb53785856040518080602001838152602001828103825284818151815260200191508051906020019080838360005b83811015610594578082015181840152602081019050610579565b50505050905090810190601f1680156105c15780820380516001836020036101000a031916815260200191505b50935050505060405180910390a250949350505050565b600083600080868152602001908152602001600020600001541415151561068d576040517f08c379a00000000000000000000000000000000000000000000000000000000081526004018080602001828103825260288152602001807f50617469656e7420776974682074686520676976656e20494420616c7265616481526020017f792065786973747300000000000000000000000000000000000000000000000081525060400191505060405180910390fd5b60008351111515610706576040517f08c379a00000000000000000000000000000000000000000000000000000000081526004018080602001828103825260168152602001807f4e616d65206669656c642069732072657175697265640000000000000000000081525060200191505060405180910390fd5b6060604051908101604052808581526020018481526020018381525060008086815260200190815260200160002060008201518160000155602082015181600101908051906020019061075a9291906108dc565b5060408201518160020155905050837f0f19883a2d62283843d7f6beb4270f5789299faae25cc7798d99b7861a105c9484846040518080602001838152602001828103825284818151815260200191508051906020019080838360005b838110156107d25780820151818401526020810190506107b7565b50505050905090810190601f1680156107ff5780820380516001836020036101000a031916815260200191505b50935050505060405180910390a29392505050565b50805460018160011615610100020316600290046000825580601f1061083a5750610859565b601f016020900490600052602060002090810190610858919061095c565b5b50565b828054600181600116156101000203166002900490600052602060002090601f016020900481019282601f1061089d57805160ff19168380011785556108cb565b828001600101855582156108cb579182015b828111156108ca5782518255916020019190600101906108af565b5b5090506108d8919061095c565b5090565b828054600181600116156101000203166002900490600052602060002090601f016020900481019282601f1061091d57805160ff191683800117855561094b565b8280016001018555821561094b579182015b8281111561094a57825182559160200191906001019061092f565b5b509050610958919061095c565b5090565b61097e91905b8082111561097a576000816000905550600101610962565b5090565b9056fea165627a7a72305820618d0806a19d733190f23303a4c887de1cd3121e918eb46248cd825e1f85a82a0029",
  "source": "// SPDX-License-Identifier: MIT\r\npragma solidity >=0.4.22 <0.9.0;\r\n\r\ncontract HealthRecord {\r\n    struct Patient {\r\n        uint256 id;\r\n        string name;\r\n        uint256 age; \r\n    }\r\n    mapping(uint256 => Patient) public patients;\r\n\r\n    event PatientAdded(uint256 indexed id, string name, uint256 age);\r\n    event PatientUpdated(uint256 indexed id, string name, uint256 age);\r\n    event PatientDeleted(uint256 indexed id);\r\n  \r\n    function addPatient(uint256 id, string memory name, uint256 age) public returns (bytes32) {\r\n        require(patients[id].id != id, \"Patient with the given ID already exists\");\r\n        require(bytes(name).length > 0, \"Name field is required\");     \r\n        patients[id] = Patient(id, name, age);       \r\n        emit PatientAdded(id, name, age);        \r\n    }\r\n\r\n    function updatePatient(uint256 oldId, uint256 newId, string memory newName, uint256 newAge) public returns (bytes32) {\r\n        require(bytes(newName).length > 0, \"Name field is required\");       \r\n        Patient storage patient = patients[oldId];        \r\n        patient.id = newId;\r\n        patient.name = newName;\r\n        patient.age = newAge;        \r\n        emit PatientUpdated(newId, newName, newAge);        \r\n    }\r\n    \r\n    function deletePatient(uint256 id) public {        \r\n        delete patients[id];        \r\n        emit PatientDeleted(id);\r\n    }\r\n\r\n}\r\n",
  "sourcePath": "C:\\Indira\\patient-contract\\contracts\\HealthRecord.sol",
  "compiler": {
    "name": "solc",
    "version": "0.5.1+commit.c8a2cb62.Emscripten.clang"
  },
  "schemaVersion": "3.4.14",
  "updatedAt": "2023-07-20T11:56:21.480Z",
  "networkType": "ethereum",
  "devdoc": {
    "methods": {}
  },
  "userdoc": {
    "methods": {}
  }
}